{
	"contracts/vendingMachine.sol": {
		"VendingMachine": {
			"abi": [
				{
					"inputs": [],
					"stateMutability": "nonpayable",
					"type": "constructor"
				},
				{
					"inputs": [],
					"name": "_owner",
					"outputs": [
						{
							"internalType": "address",
							"name": "",
							"type": "address"
						}
					],
					"stateMutability": "view",
					"type": "function"
				},
				{
					"inputs": [
						{
							"internalType": "address",
							"name": "",
							"type": "address"
						}
					],
					"name": "cupcakeBalance",
					"outputs": [
						{
							"internalType": "uint256",
							"name": "",
							"type": "uint256"
						}
					],
					"stateMutability": "view",
					"type": "function"
				},
				{
					"inputs": [
						{
							"internalType": "uint256",
							"name": "itemCount",
							"type": "uint256"
						}
					],
					"name": "purchase",
					"outputs": [],
					"stateMutability": "payable",
					"type": "function"
				},
				{
					"inputs": [
						{
							"internalType": "uint256",
							"name": "itemCount",
							"type": "uint256"
						}
					],
					"name": "restock",
					"outputs": [],
					"stateMutability": "nonpayable",
					"type": "function"
				},
				{
					"inputs": [],
					"name": "retireveCupcakeBalance",
					"outputs": [
						{
							"internalType": "uint256",
							"name": "",
							"type": "uint256"
						}
					],
					"stateMutability": "view",
					"type": "function"
				}
			],
			"devdoc": {
				"kind": "dev",
				"methods": {},
				"version": 1
			},
			"evm": {
				"assembly": "    /* \"contracts/vendingMachine.sol\":63:985  contract VendingMachine {... */\n  mstore(0x40, 0x80)\n    /* \"contracts/vendingMachine.sol\":172:265  constructor(){... */\n  callvalue\n  dup1\n  iszero\n  tag_1\n  jumpi\n  0x00\n  dup1\n  revert\ntag_1:\n  pop\n    /* \"contracts/vendingMachine.sol\":204:214  msg.sender */\n  caller\n    /* \"contracts/vendingMachine.sol\":195:201  _owner */\n  0x00\n  dup1\n    /* \"contracts/vendingMachine.sol\":195:214  _owner = msg.sender */\n  0x0100\n  exp\n  dup2\n  sload\n  dup2\n  0xffffffffffffffffffffffffffffffffffffffff\n  mul\n  not\n  and\n  swap1\n  dup4\n  0xffffffffffffffffffffffffffffffffffffffff\n  and\n  mul\n  or\n  swap1\n  sstore\n  pop\n    /* \"contracts/vendingMachine.sol\":256:258  10 */\n  0x0a\n    /* \"contracts/vendingMachine.sol\":224:238  cupcakeBalance */\n  0x01\n    /* \"contracts/vendingMachine.sol\":224:253  cupcakeBalance[address(this)] */\n  0x00\n    /* \"contracts/vendingMachine.sol\":247:251  this */\n  address\n    /* \"contracts/vendingMachine.sol\":224:253  cupcakeBalance[address(this)] */\n  0xffffffffffffffffffffffffffffffffffffffff\n  and\n  0xffffffffffffffffffffffffffffffffffffffff\n  and\n  dup2\n  mstore\n  0x20\n  add\n  swap1\n  dup2\n  mstore\n  0x20\n  add\n  0x00\n  keccak256\n    /* \"contracts/vendingMachine.sol\":224:258  cupcakeBalance[address(this)] = 10 */\n  dup2\n  swap1\n  sstore\n  pop\n    /* \"contracts/vendingMachine.sol\":63:985  contract VendingMachine {... */\n  dataSize(sub_0)\n  dup1\n  dataOffset(sub_0)\n  0x00\n  codecopy\n  0x00\n  return\nstop\n\nsub_0: assembly {\n        /* \"contracts/vendingMachine.sol\":63:985  contract VendingMachine {... */\n      mstore(0x40, 0x80)\n      jumpi(tag_1, lt(calldatasize, 0x04))\n      shr(0xe0, calldataload(0x00))\n      dup1\n      0x81893c94\n      eq\n      tag_2\n      jumpi\n      dup1\n      0xb2bdfa7b\n      eq\n      tag_3\n      jumpi\n      dup1\n      0xc21a702a\n      eq\n      tag_4\n      jumpi\n      dup1\n      0xc8baecbe\n      eq\n      tag_5\n      jumpi\n      dup1\n      0xefef39a1\n      eq\n      tag_6\n      jumpi\n    tag_1:\n      0x00\n      dup1\n      revert\n        /* \"contracts/vendingMachine.sol\":298:405  function retireveCupcakeBalance() public view returns (uint){... */\n    tag_2:\n      callvalue\n      dup1\n      iszero\n      tag_7\n      jumpi\n      0x00\n      dup1\n      revert\n    tag_7:\n      pop\n      tag_8\n      tag_9\n      jump\t// in\n    tag_8:\n      mload(0x40)\n      tag_10\n      swap2\n      swap1\n      tag_11\n      jump\t// in\n    tag_10:\n      mload(0x40)\n      dup1\n      swap2\n      sub\n      swap1\n      return\n        /* \"contracts/vendingMachine.sol\":93:114  address public _owner */\n    tag_3:\n      callvalue\n      dup1\n      iszero\n      tag_12\n      jumpi\n      0x00\n      dup1\n      revert\n    tag_12:\n      pop\n      tag_13\n      tag_14\n      jump\t// in\n    tag_13:\n      mload(0x40)\n      tag_15\n      swap2\n      swap1\n      tag_16\n      jump\t// in\n    tag_15:\n      mload(0x40)\n      dup1\n      swap2\n      sub\n      swap1\n      return\n        /* \"contracts/vendingMachine.sol\":443:610  function restock(uint itemCount) public{... */\n    tag_4:\n      callvalue\n      dup1\n      iszero\n      tag_17\n      jumpi\n      0x00\n      dup1\n      revert\n    tag_17:\n      pop\n      tag_18\n      0x04\n      dup1\n      calldatasize\n      sub\n      dup2\n      add\n      swap1\n      tag_19\n      swap2\n      swap1\n      tag_20\n      jump\t// in\n    tag_19:\n      tag_21\n      jump\t// in\n    tag_18:\n      stop\n        /* \"contracts/vendingMachine.sol\":120:165  mapping (address=>uint) public cupcakeBalance */\n    tag_5:\n      callvalue\n      dup1\n      iszero\n      tag_22\n      jumpi\n      0x00\n      dup1\n      revert\n    tag_22:\n      pop\n      tag_23\n      0x04\n      dup1\n      calldatasize\n      sub\n      dup2\n      add\n      swap1\n      tag_24\n      swap2\n      swap1\n      tag_25\n      jump\t// in\n    tag_24:\n      tag_26\n      jump\t// in\n    tag_23:\n      mload(0x40)\n      tag_27\n      swap2\n      swap1\n      tag_11\n      jump\t// in\n    tag_27:\n      mload(0x40)\n      dup1\n      swap2\n      sub\n      swap1\n      return\n        /* \"contracts/vendingMachine.sol\":643:983  function purchase(uint itemCount) public payable {... */\n    tag_6:\n      tag_28\n      0x04\n      dup1\n      calldatasize\n      sub\n      dup2\n      add\n      swap1\n      tag_29\n      swap2\n      swap1\n      tag_20\n      jump\t// in\n    tag_29:\n      tag_30\n      jump\t// in\n    tag_28:\n      stop\n        /* \"contracts/vendingMachine.sol\":298:405  function retireveCupcakeBalance() public view returns (uint){... */\n    tag_9:\n        /* \"contracts/vendingMachine.sol\":353:357  uint */\n      0x00\n        /* \"contracts/vendingMachine.sol\":372:386  cupcakeBalance */\n      0x01\n        /* \"contracts/vendingMachine.sol\":372:401  cupcakeBalance[address(this)] */\n      0x00\n        /* \"contracts/vendingMachine.sol\":395:399  this */\n      address\n        /* \"contracts/vendingMachine.sol\":372:401  cupcakeBalance[address(this)] */\n      0xffffffffffffffffffffffffffffffffffffffff\n      and\n      0xffffffffffffffffffffffffffffffffffffffff\n      and\n      dup2\n      mstore\n      0x20\n      add\n      swap1\n      dup2\n      mstore\n      0x20\n      add\n      0x00\n      keccak256\n      sload\n        /* \"contracts/vendingMachine.sol\":365:401  return cupcakeBalance[address(this)] */\n      swap1\n      pop\n        /* \"contracts/vendingMachine.sol\":298:405  function retireveCupcakeBalance() public view returns (uint){... */\n      swap1\n      jump\t// out\n        /* \"contracts/vendingMachine.sol\":93:114  address public _owner */\n    tag_14:\n      0x00\n      dup1\n      sload\n      swap1\n      0x0100\n      exp\n      swap1\n      div\n      0xffffffffffffffffffffffffffffffffffffffff\n      and\n      dup2\n      jump\t// out\n        /* \"contracts/vendingMachine.sol\":443:610  function restock(uint itemCount) public{... */\n    tag_21:\n        /* \"contracts/vendingMachine.sol\":514:520  _owner */\n      0x00\n      dup1\n      sload\n      swap1\n      0x0100\n      exp\n      swap1\n      div\n      0xffffffffffffffffffffffffffffffffffffffff\n      and\n        /* \"contracts/vendingMachine.sol\":500:520  msg.sender == _owner */\n      0xffffffffffffffffffffffffffffffffffffffff\n      and\n        /* \"contracts/vendingMachine.sol\":500:510  msg.sender */\n      caller\n        /* \"contracts/vendingMachine.sol\":500:520  msg.sender == _owner */\n      0xffffffffffffffffffffffffffffffffffffffff\n      and\n      eq\n        /* \"contracts/vendingMachine.sol\":492:551  require(msg.sender == _owner,\"Access Denied! Not a owner.\") */\n      tag_33\n      jumpi\n      mload(0x40)\n      0x08c379a000000000000000000000000000000000000000000000000000000000\n      dup2\n      mstore\n      0x04\n      add\n      tag_34\n      swap1\n      tag_35\n      jump\t// in\n    tag_34:\n      mload(0x40)\n      dup1\n      swap2\n      sub\n      swap1\n      revert\n    tag_33:\n        /* \"contracts/vendingMachine.sol\":594:603  itemCount */\n      dup1\n        /* \"contracts/vendingMachine.sol\":561:575  cupcakeBalance */\n      0x01\n        /* \"contracts/vendingMachine.sol\":561:590  cupcakeBalance[address(this)] */\n      0x00\n        /* \"contracts/vendingMachine.sol\":584:588  this */\n      address\n        /* \"contracts/vendingMachine.sol\":561:590  cupcakeBalance[address(this)] */\n      0xffffffffffffffffffffffffffffffffffffffff\n      and\n      0xffffffffffffffffffffffffffffffffffffffff\n      and\n      dup2\n      mstore\n      0x20\n      add\n      swap1\n      dup2\n      mstore\n      0x20\n      add\n      0x00\n      keccak256\n      0x00\n        /* \"contracts/vendingMachine.sol\":561:603  cupcakeBalance[address(this)] += itemCount */\n      dup3\n      dup3\n      sload\n      tag_36\n      swap2\n      swap1\n      tag_37\n      jump\t// in\n    tag_36:\n      swap3\n      pop\n      pop\n      dup2\n      swap1\n      sstore\n      pop\n        /* \"contracts/vendingMachine.sol\":443:610  function restock(uint itemCount) public{... */\n      pop\n      jump\t// out\n        /* \"contracts/vendingMachine.sol\":120:165  mapping (address=>uint) public cupcakeBalance */\n    tag_26:\n      mstore(0x20, 0x01)\n      dup1\n      0x00\n      mstore\n      keccak256(0x00, 0x40)\n      0x00\n      swap2\n      pop\n      swap1\n      pop\n      sload\n      dup2\n      jump\t// out\n        /* \"contracts/vendingMachine.sol\":643:983  function purchase(uint itemCount) public payable {... */\n    tag_30:\n        /* \"contracts/vendingMachine.sol\":735:742  1 ether */\n      0x0de0b6b3a7640000\n        /* \"contracts/vendingMachine.sol\":723:732  itemCount */\n      dup2\n        /* \"contracts/vendingMachine.sol\":723:742  itemCount * 1 ether */\n      tag_39\n      swap2\n      swap1\n      tag_40\n      jump\t// in\n    tag_39:\n        /* \"contracts/vendingMachine.sol\":710:719  msg.value */\n      callvalue\n        /* \"contracts/vendingMachine.sol\":710:742  msg.value >= itemCount * 1 ether */\n      lt\n      iszero\n        /* \"contracts/vendingMachine.sol\":702:785  require(msg.value >= itemCount * 1 ether,\"Not sufficient amount for the cupcakes!\") */\n      tag_41\n      jumpi\n      mload(0x40)\n      0x08c379a000000000000000000000000000000000000000000000000000000000\n      dup2\n      mstore\n      0x04\n      add\n      tag_42\n      swap1\n      tag_43\n      jump\t// in\n    tag_42:\n      mload(0x40)\n      dup1\n      swap2\n      sub\n      swap1\n      revert\n    tag_41:\n        /* \"contracts/vendingMachine.sol\":835:844  itemCount */\n      dup1\n        /* \"contracts/vendingMachine.sol\":803:817  cupcakeBalance */\n      0x01\n        /* \"contracts/vendingMachine.sol\":803:832  cupcakeBalance[address(this)] */\n      0x00\n        /* \"contracts/vendingMachine.sol\":826:830  this */\n      address\n        /* \"contracts/vendingMachine.sol\":803:832  cupcakeBalance[address(this)] */\n      0xffffffffffffffffffffffffffffffffffffffff\n      and\n      0xffffffffffffffffffffffffffffffffffffffff\n      and\n      dup2\n      mstore\n      0x20\n      add\n      swap1\n      dup2\n      mstore\n      0x20\n      add\n      0x00\n      keccak256\n      sload\n        /* \"contracts/vendingMachine.sol\":803:844  cupcakeBalance[address(this)]>= itemCount */\n      lt\n      iszero\n        /* \"contracts/vendingMachine.sol\":795:874  require(cupcakeBalance[address(this)]>= itemCount,\"Sorry we are out of stock!\") */\n      tag_44\n      jumpi\n      mload(0x40)\n      0x08c379a000000000000000000000000000000000000000000000000000000000\n      dup2\n      mstore\n      0x04\n      add\n      tag_45\n      swap1\n      tag_46\n      jump\t// in\n    tag_45:\n      mload(0x40)\n      dup1\n      swap2\n      sub\n      swap1\n      revert\n    tag_44:\n        /* \"contracts/vendingMachine.sol\":917:926  itemCount */\n      dup1\n        /* \"contracts/vendingMachine.sol\":884:898  cupcakeBalance */\n      0x01\n        /* \"contracts/vendingMachine.sol\":884:913  cupcakeBalance[address(this)] */\n      0x00\n        /* \"contracts/vendingMachine.sol\":907:911  this */\n      address\n        /* \"contracts/vendingMachine.sol\":884:913  cupcakeBalance[address(this)] */\n      0xffffffffffffffffffffffffffffffffffffffff\n      and\n      0xffffffffffffffffffffffffffffffffffffffff\n      and\n      dup2\n      mstore\n      0x20\n      add\n      swap1\n      dup2\n      mstore\n      0x20\n      add\n      0x00\n      keccak256\n      0x00\n        /* \"contracts/vendingMachine.sol\":884:926  cupcakeBalance[address(this)] -= itemCount */\n      dup3\n      dup3\n      sload\n      tag_47\n      swap2\n      swap1\n      tag_48\n      jump\t// in\n    tag_47:\n      swap3\n      pop\n      pop\n      dup2\n      swap1\n      sstore\n      pop\n        /* \"contracts/vendingMachine.sol\":966:975  itemCount */\n      dup1\n        /* \"contracts/vendingMachine.sol\":936:950  cupcakeBalance */\n      0x01\n        /* \"contracts/vendingMachine.sol\":936:962  cupcakeBalance[msg.sender] */\n      0x00\n        /* \"contracts/vendingMachine.sol\":951:961  msg.sender */\n      caller\n        /* \"contracts/vendingMachine.sol\":936:962  cupcakeBalance[msg.sender] */\n      0xffffffffffffffffffffffffffffffffffffffff\n      and\n      0xffffffffffffffffffffffffffffffffffffffff\n      and\n      dup2\n      mstore\n      0x20\n      add\n      swap1\n      dup2\n      mstore\n      0x20\n      add\n      0x00\n      keccak256\n      0x00\n        /* \"contracts/vendingMachine.sol\":936:975  cupcakeBalance[msg.sender] += itemCount */\n      dup3\n      dup3\n      sload\n      tag_49\n      swap2\n      swap1\n      tag_37\n      jump\t// in\n    tag_49:\n      swap3\n      pop\n      pop\n      dup2\n      swap1\n      sstore\n      pop\n        /* \"contracts/vendingMachine.sol\":643:983  function purchase(uint itemCount) public payable {... */\n      pop\n      jump\t// out\n        /* \"#utility.yul\":7:84   */\n    tag_50:\n        /* \"#utility.yul\":44:51   */\n      0x00\n        /* \"#utility.yul\":73:78   */\n      dup2\n        /* \"#utility.yul\":62:78   */\n      swap1\n      pop\n        /* \"#utility.yul\":7:84   */\n      swap2\n      swap1\n      pop\n      jump\t// out\n        /* \"#utility.yul\":90:208   */\n    tag_51:\n        /* \"#utility.yul\":177:201   */\n      tag_73\n        /* \"#utility.yul\":195:200   */\n      dup2\n        /* \"#utility.yul\":177:201   */\n      tag_50\n      jump\t// in\n    tag_73:\n        /* \"#utility.yul\":172:175   */\n      dup3\n        /* \"#utility.yul\":165:202   */\n      mstore\n        /* \"#utility.yul\":90:208   */\n      pop\n      pop\n      jump\t// out\n        /* \"#utility.yul\":214:436   */\n    tag_11:\n        /* \"#utility.yul\":307:311   */\n      0x00\n        /* \"#utility.yul\":345:347   */\n      0x20\n        /* \"#utility.yul\":334:343   */\n      dup3\n        /* \"#utility.yul\":330:348   */\n      add\n        /* \"#utility.yul\":322:348   */\n      swap1\n      pop\n        /* \"#utility.yul\":358:429   */\n      tag_75\n        /* \"#utility.yul\":426:427   */\n      0x00\n        /* \"#utility.yul\":415:424   */\n      dup4\n        /* \"#utility.yul\":411:428   */\n      add\n        /* \"#utility.yul\":402:408   */\n      dup5\n        /* \"#utility.yul\":358:429   */\n      tag_51\n      jump\t// in\n    tag_75:\n        /* \"#utility.yul\":214:436   */\n      swap3\n      swap2\n      pop\n      pop\n      jump\t// out\n        /* \"#utility.yul\":442:568   */\n    tag_52:\n        /* \"#utility.yul\":479:486   */\n      0x00\n        /* \"#utility.yul\":519:561   */\n      0xffffffffffffffffffffffffffffffffffffffff\n        /* \"#utility.yul\":512:517   */\n      dup3\n        /* \"#utility.yul\":508:562   */\n      and\n        /* \"#utility.yul\":497:562   */\n      swap1\n      pop\n        /* \"#utility.yul\":442:568   */\n      swap2\n      swap1\n      pop\n      jump\t// out\n        /* \"#utility.yul\":574:670   */\n    tag_53:\n        /* \"#utility.yul\":611:618   */\n      0x00\n        /* \"#utility.yul\":640:664   */\n      tag_78\n        /* \"#utility.yul\":658:663   */\n      dup3\n        /* \"#utility.yul\":640:664   */\n      tag_52\n      jump\t// in\n    tag_78:\n        /* \"#utility.yul\":629:664   */\n      swap1\n      pop\n        /* \"#utility.yul\":574:670   */\n      swap2\n      swap1\n      pop\n      jump\t// out\n        /* \"#utility.yul\":676:794   */\n    tag_54:\n        /* \"#utility.yul\":763:787   */\n      tag_80\n        /* \"#utility.yul\":781:786   */\n      dup2\n        /* \"#utility.yul\":763:787   */\n      tag_53\n      jump\t// in\n    tag_80:\n        /* \"#utility.yul\":758:761   */\n      dup3\n        /* \"#utility.yul\":751:788   */\n      mstore\n        /* \"#utility.yul\":676:794   */\n      pop\n      pop\n      jump\t// out\n        /* \"#utility.yul\":800:1022   */\n    tag_16:\n        /* \"#utility.yul\":893:897   */\n      0x00\n        /* \"#utility.yul\":931:933   */\n      0x20\n        /* \"#utility.yul\":920:929   */\n      dup3\n        /* \"#utility.yul\":916:934   */\n      add\n        /* \"#utility.yul\":908:934   */\n      swap1\n      pop\n        /* \"#utility.yul\":944:1015   */\n      tag_82\n        /* \"#utility.yul\":1012:1013   */\n      0x00\n        /* \"#utility.yul\":1001:1010   */\n      dup4\n        /* \"#utility.yul\":997:1014   */\n      add\n        /* \"#utility.yul\":988:994   */\n      dup5\n        /* \"#utility.yul\":944:1015   */\n      tag_54\n      jump\t// in\n    tag_82:\n        /* \"#utility.yul\":800:1022   */\n      swap3\n      swap2\n      pop\n      pop\n      jump\t// out\n        /* \"#utility.yul\":1109:1226   */\n    tag_56:\n        /* \"#utility.yul\":1218:1219   */\n      0x00\n        /* \"#utility.yul\":1215:1216   */\n      dup1\n        /* \"#utility.yul\":1208:1220   */\n      revert\n        /* \"#utility.yul\":1355:1477   */\n    tag_58:\n        /* \"#utility.yul\":1428:1452   */\n      tag_87\n        /* \"#utility.yul\":1446:1451   */\n      dup2\n        /* \"#utility.yul\":1428:1452   */\n      tag_50\n      jump\t// in\n    tag_87:\n        /* \"#utility.yul\":1421:1426   */\n      dup2\n        /* \"#utility.yul\":1418:1453   */\n      eq\n        /* \"#utility.yul\":1408:1471   */\n      tag_88\n      jumpi\n        /* \"#utility.yul\":1467:1468   */\n      0x00\n        /* \"#utility.yul\":1464:1465   */\n      dup1\n        /* \"#utility.yul\":1457:1469   */\n      revert\n        /* \"#utility.yul\":1408:1471   */\n    tag_88:\n        /* \"#utility.yul\":1355:1477   */\n      pop\n      jump\t// out\n        /* \"#utility.yul\":1483:1622   */\n    tag_59:\n        /* \"#utility.yul\":1529:1534   */\n      0x00\n        /* \"#utility.yul\":1567:1573   */\n      dup2\n        /* \"#utility.yul\":1554:1574   */\n      calldataload\n        /* \"#utility.yul\":1545:1574   */\n      swap1\n      pop\n        /* \"#utility.yul\":1583:1616   */\n      tag_90\n        /* \"#utility.yul\":1610:1615   */\n      dup2\n        /* \"#utility.yul\":1583:1616   */\n      tag_58\n      jump\t// in\n    tag_90:\n        /* \"#utility.yul\":1483:1622   */\n      swap3\n      swap2\n      pop\n      pop\n      jump\t// out\n        /* \"#utility.yul\":1628:1957   */\n    tag_20:\n        /* \"#utility.yul\":1687:1693   */\n      0x00\n        /* \"#utility.yul\":1736:1738   */\n      0x20\n        /* \"#utility.yul\":1724:1733   */\n      dup3\n        /* \"#utility.yul\":1715:1722   */\n      dup5\n        /* \"#utility.yul\":1711:1734   */\n      sub\n        /* \"#utility.yul\":1707:1739   */\n      slt\n        /* \"#utility.yul\":1704:1823   */\n      iszero\n      tag_92\n      jumpi\n        /* \"#utility.yul\":1742:1821   */\n      tag_93\n      tag_56\n      jump\t// in\n    tag_93:\n        /* \"#utility.yul\":1704:1823   */\n    tag_92:\n        /* \"#utility.yul\":1862:1863   */\n      0x00\n        /* \"#utility.yul\":1887:1940   */\n      tag_94\n        /* \"#utility.yul\":1932:1939   */\n      dup5\n        /* \"#utility.yul\":1923:1929   */\n      dup3\n        /* \"#utility.yul\":1912:1921   */\n      dup6\n        /* \"#utility.yul\":1908:1930   */\n      add\n        /* \"#utility.yul\":1887:1940   */\n      tag_59\n      jump\t// in\n    tag_94:\n        /* \"#utility.yul\":1877:1940   */\n      swap2\n      pop\n        /* \"#utility.yul\":1833:1950   */\n      pop\n        /* \"#utility.yul\":1628:1957   */\n      swap3\n      swap2\n      pop\n      pop\n      jump\t// out\n        /* \"#utility.yul\":1963:2085   */\n    tag_60:\n        /* \"#utility.yul\":2036:2060   */\n      tag_96\n        /* \"#utility.yul\":2054:2059   */\n      dup2\n        /* \"#utility.yul\":2036:2060   */\n      tag_53\n      jump\t// in\n    tag_96:\n        /* \"#utility.yul\":2029:2034   */\n      dup2\n        /* \"#utility.yul\":2026:2061   */\n      eq\n        /* \"#utility.yul\":2016:2079   */\n      tag_97\n      jumpi\n        /* \"#utility.yul\":2075:2076   */\n      0x00\n        /* \"#utility.yul\":2072:2073   */\n      dup1\n        /* \"#utility.yul\":2065:2077   */\n      revert\n        /* \"#utility.yul\":2016:2079   */\n    tag_97:\n        /* \"#utility.yul\":1963:2085   */\n      pop\n      jump\t// out\n        /* \"#utility.yul\":2091:2230   */\n    tag_61:\n        /* \"#utility.yul\":2137:2142   */\n      0x00\n        /* \"#utility.yul\":2175:2181   */\n      dup2\n        /* \"#utility.yul\":2162:2182   */\n      calldataload\n        /* \"#utility.yul\":2153:2182   */\n      swap1\n      pop\n        /* \"#utility.yul\":2191:2224   */\n      tag_99\n        /* \"#utility.yul\":2218:2223   */\n      dup2\n        /* \"#utility.yul\":2191:2224   */\n      tag_60\n      jump\t// in\n    tag_99:\n        /* \"#utility.yul\":2091:2230   */\n      swap3\n      swap2\n      pop\n      pop\n      jump\t// out\n        /* \"#utility.yul\":2236:2565   */\n    tag_25:\n        /* \"#utility.yul\":2295:2301   */\n      0x00\n        /* \"#utility.yul\":2344:2346   */\n      0x20\n        /* \"#utility.yul\":2332:2341   */\n      dup3\n        /* \"#utility.yul\":2323:2330   */\n      dup5\n        /* \"#utility.yul\":2319:2342   */\n      sub\n        /* \"#utility.yul\":2315:2347   */\n      slt\n        /* \"#utility.yul\":2312:2431   */\n      iszero\n      tag_101\n      jumpi\n        /* \"#utility.yul\":2350:2429   */\n      tag_102\n      tag_56\n      jump\t// in\n    tag_102:\n        /* \"#utility.yul\":2312:2431   */\n    tag_101:\n        /* \"#utility.yul\":2470:2471   */\n      0x00\n        /* \"#utility.yul\":2495:2548   */\n      tag_103\n        /* \"#utility.yul\":2540:2547   */\n      dup5\n        /* \"#utility.yul\":2531:2537   */\n      dup3\n        /* \"#utility.yul\":2520:2529   */\n      dup6\n        /* \"#utility.yul\":2516:2538   */\n      add\n        /* \"#utility.yul\":2495:2548   */\n      tag_61\n      jump\t// in\n    tag_103:\n        /* \"#utility.yul\":2485:2548   */\n      swap2\n      pop\n        /* \"#utility.yul\":2441:2558   */\n      pop\n        /* \"#utility.yul\":2236:2565   */\n      swap3\n      swap2\n      pop\n      pop\n      jump\t// out\n        /* \"#utility.yul\":2571:2740   */\n    tag_62:\n        /* \"#utility.yul\":2655:2666   */\n      0x00\n        /* \"#utility.yul\":2689:2695   */\n      dup3\n        /* \"#utility.yul\":2684:2687   */\n      dup3\n        /* \"#utility.yul\":2677:2696   */\n      mstore\n        /* \"#utility.yul\":2729:2733   */\n      0x20\n        /* \"#utility.yul\":2724:2727   */\n      dup3\n        /* \"#utility.yul\":2720:2734   */\n      add\n        /* \"#utility.yul\":2705:2734   */\n      swap1\n      pop\n        /* \"#utility.yul\":2571:2740   */\n      swap3\n      swap2\n      pop\n      pop\n      jump\t// out\n        /* \"#utility.yul\":2746:2923   */\n    tag_63:\n        /* \"#utility.yul\":2886:2915   */\n      0x4163636573732044656e69656421204e6f742061206f776e65722e0000000000\n        /* \"#utility.yul\":2882:2883   */\n      0x00\n        /* \"#utility.yul\":2874:2880   */\n      dup3\n        /* \"#utility.yul\":2870:2884   */\n      add\n        /* \"#utility.yul\":2863:2916   */\n      mstore\n        /* \"#utility.yul\":2746:2923   */\n      pop\n      jump\t// out\n        /* \"#utility.yul\":2929:3295   */\n    tag_64:\n        /* \"#utility.yul\":3071:3074   */\n      0x00\n        /* \"#utility.yul\":3092:3159   */\n      tag_107\n        /* \"#utility.yul\":3156:3158   */\n      0x1b\n        /* \"#utility.yul\":3151:3154   */\n      dup4\n        /* \"#utility.yul\":3092:3159   */\n      tag_62\n      jump\t// in\n    tag_107:\n        /* \"#utility.yul\":3085:3159   */\n      swap2\n      pop\n        /* \"#utility.yul\":3168:3261   */\n      tag_108\n        /* \"#utility.yul\":3257:3260   */\n      dup3\n        /* \"#utility.yul\":3168:3261   */\n      tag_63\n      jump\t// in\n    tag_108:\n        /* \"#utility.yul\":3286:3288   */\n      0x20\n        /* \"#utility.yul\":3281:3284   */\n      dup3\n        /* \"#utility.yul\":3277:3289   */\n      add\n        /* \"#utility.yul\":3270:3289   */\n      swap1\n      pop\n        /* \"#utility.yul\":2929:3295   */\n      swap2\n      swap1\n      pop\n      jump\t// out\n        /* \"#utility.yul\":3301:3720   */\n    tag_35:\n        /* \"#utility.yul\":3467:3471   */\n      0x00\n        /* \"#utility.yul\":3505:3507   */\n      0x20\n        /* \"#utility.yul\":3494:3503   */\n      dup3\n        /* \"#utility.yul\":3490:3508   */\n      add\n        /* \"#utility.yul\":3482:3508   */\n      swap1\n      pop\n        /* \"#utility.yul\":3554:3563   */\n      dup2\n        /* \"#utility.yul\":3548:3552   */\n      dup2\n        /* \"#utility.yul\":3544:3564   */\n      sub\n        /* \"#utility.yul\":3540:3541   */\n      0x00\n        /* \"#utility.yul\":3529:3538   */\n      dup4\n        /* \"#utility.yul\":3525:3542   */\n      add\n        /* \"#utility.yul\":3518:3565   */\n      mstore\n        /* \"#utility.yul\":3582:3713   */\n      tag_110\n        /* \"#utility.yul\":3708:3712   */\n      dup2\n        /* \"#utility.yul\":3582:3713   */\n      tag_64\n      jump\t// in\n    tag_110:\n        /* \"#utility.yul\":3574:3713   */\n      swap1\n      pop\n        /* \"#utility.yul\":3301:3720   */\n      swap2\n      swap1\n      pop\n      jump\t// out\n        /* \"#utility.yul\":3726:3906   */\n    tag_65:\n        /* \"#utility.yul\":3774:3851   */\n      0x4e487b7100000000000000000000000000000000000000000000000000000000\n        /* \"#utility.yul\":3771:3772   */\n      0x00\n        /* \"#utility.yul\":3764:3852   */\n      mstore\n        /* \"#utility.yul\":3871:3875   */\n      0x11\n        /* \"#utility.yul\":3868:3869   */\n      0x04\n        /* \"#utility.yul\":3861:3876   */\n      mstore\n        /* \"#utility.yul\":3895:3899   */\n      0x24\n        /* \"#utility.yul\":3892:3893   */\n      0x00\n        /* \"#utility.yul\":3885:3900   */\n      revert\n        /* \"#utility.yul\":3912:4103   */\n    tag_37:\n        /* \"#utility.yul\":3952:3955   */\n      0x00\n        /* \"#utility.yul\":3971:3991   */\n      tag_113\n        /* \"#utility.yul\":3989:3990   */\n      dup3\n        /* \"#utility.yul\":3971:3991   */\n      tag_50\n      jump\t// in\n    tag_113:\n        /* \"#utility.yul\":3966:3991   */\n      swap2\n      pop\n        /* \"#utility.yul\":4005:4025   */\n      tag_114\n        /* \"#utility.yul\":4023:4024   */\n      dup4\n        /* \"#utility.yul\":4005:4025   */\n      tag_50\n      jump\t// in\n    tag_114:\n        /* \"#utility.yul\":4000:4025   */\n      swap3\n      pop\n        /* \"#utility.yul\":4048:4049   */\n      dup3\n        /* \"#utility.yul\":4045:4046   */\n      dup3\n        /* \"#utility.yul\":4041:4050   */\n      add\n        /* \"#utility.yul\":4034:4050   */\n      swap1\n      pop\n        /* \"#utility.yul\":4069:4072   */\n      dup1\n        /* \"#utility.yul\":4066:4067   */\n      dup3\n        /* \"#utility.yul\":4063:4073   */\n      gt\n        /* \"#utility.yul\":4060:4096   */\n      iszero\n      tag_115\n      jumpi\n        /* \"#utility.yul\":4076:4094   */\n      tag_116\n      tag_65\n      jump\t// in\n    tag_116:\n        /* \"#utility.yul\":4060:4096   */\n    tag_115:\n        /* \"#utility.yul\":3912:4103   */\n      swap3\n      swap2\n      pop\n      pop\n      jump\t// out\n        /* \"#utility.yul\":4109:4519   */\n    tag_40:\n        /* \"#utility.yul\":4149:4156   */\n      0x00\n        /* \"#utility.yul\":4172:4192   */\n      tag_118\n        /* \"#utility.yul\":4190:4191   */\n      dup3\n        /* \"#utility.yul\":4172:4192   */\n      tag_50\n      jump\t// in\n    tag_118:\n        /* \"#utility.yul\":4167:4192   */\n      swap2\n      pop\n        /* \"#utility.yul\":4206:4226   */\n      tag_119\n        /* \"#utility.yul\":4224:4225   */\n      dup4\n        /* \"#utility.yul\":4206:4226   */\n      tag_50\n      jump\t// in\n    tag_119:\n        /* \"#utility.yul\":4201:4226   */\n      swap3\n      pop\n        /* \"#utility.yul\":4261:4262   */\n      dup3\n        /* \"#utility.yul\":4258:4259   */\n      dup3\n        /* \"#utility.yul\":4254:4263   */\n      mul\n        /* \"#utility.yul\":4283:4313   */\n      tag_120\n        /* \"#utility.yul\":4301:4312   */\n      dup2\n        /* \"#utility.yul\":4283:4313   */\n      tag_50\n      jump\t// in\n    tag_120:\n        /* \"#utility.yul\":4272:4313   */\n      swap2\n      pop\n        /* \"#utility.yul\":4462:4463   */\n      dup3\n        /* \"#utility.yul\":4453:4460   */\n      dup3\n        /* \"#utility.yul\":4449:4464   */\n      div\n        /* \"#utility.yul\":4446:4447   */\n      dup5\n        /* \"#utility.yul\":4443:4465   */\n      eq\n        /* \"#utility.yul\":4423:4424   */\n      dup4\n        /* \"#utility.yul\":4416:4425   */\n      iszero\n        /* \"#utility.yul\":4396:4479   */\n      or\n        /* \"#utility.yul\":4373:4512   */\n      tag_121\n      jumpi\n        /* \"#utility.yul\":4492:4510   */\n      tag_122\n      tag_65\n      jump\t// in\n    tag_122:\n        /* \"#utility.yul\":4373:4512   */\n    tag_121:\n        /* \"#utility.yul\":4157:4519   */\n      pop\n        /* \"#utility.yul\":4109:4519   */\n      swap3\n      swap2\n      pop\n      pop\n      jump\t// out\n        /* \"#utility.yul\":4525:4751   */\n    tag_66:\n        /* \"#utility.yul\":4665:4699   */\n      0x4e6f742073756666696369656e7420616d6f756e7420666f7220746865206375\n        /* \"#utility.yul\":4661:4662   */\n      0x00\n        /* \"#utility.yul\":4653:4659   */\n      dup3\n        /* \"#utility.yul\":4649:4663   */\n      add\n        /* \"#utility.yul\":4642:4700   */\n      mstore\n        /* \"#utility.yul\":4734:4743   */\n      0x7063616b65732100000000000000000000000000000000000000000000000000\n        /* \"#utility.yul\":4729:4731   */\n      0x20\n        /* \"#utility.yul\":4721:4727   */\n      dup3\n        /* \"#utility.yul\":4717:4732   */\n      add\n        /* \"#utility.yul\":4710:4744   */\n      mstore\n        /* \"#utility.yul\":4525:4751   */\n      pop\n      jump\t// out\n        /* \"#utility.yul\":4757:5123   */\n    tag_67:\n        /* \"#utility.yul\":4899:4902   */\n      0x00\n        /* \"#utility.yul\":4920:4987   */\n      tag_125\n        /* \"#utility.yul\":4984:4986   */\n      0x27\n        /* \"#utility.yul\":4979:4982   */\n      dup4\n        /* \"#utility.yul\":4920:4987   */\n      tag_62\n      jump\t// in\n    tag_125:\n        /* \"#utility.yul\":4913:4987   */\n      swap2\n      pop\n        /* \"#utility.yul\":4996:5089   */\n      tag_126\n        /* \"#utility.yul\":5085:5088   */\n      dup3\n        /* \"#utility.yul\":4996:5089   */\n      tag_66\n      jump\t// in\n    tag_126:\n        /* \"#utility.yul\":5114:5116   */\n      0x40\n        /* \"#utility.yul\":5109:5112   */\n      dup3\n        /* \"#utility.yul\":5105:5117   */\n      add\n        /* \"#utility.yul\":5098:5117   */\n      swap1\n      pop\n        /* \"#utility.yul\":4757:5123   */\n      swap2\n      swap1\n      pop\n      jump\t// out\n        /* \"#utility.yul\":5129:5548   */\n    tag_43:\n        /* \"#utility.yul\":5295:5299   */\n      0x00\n        /* \"#utility.yul\":5333:5335   */\n      0x20\n        /* \"#utility.yul\":5322:5331   */\n      dup3\n        /* \"#utility.yul\":5318:5336   */\n      add\n        /* \"#utility.yul\":5310:5336   */\n      swap1\n      pop\n        /* \"#utility.yul\":5382:5391   */\n      dup2\n        /* \"#utility.yul\":5376:5380   */\n      dup2\n        /* \"#utility.yul\":5372:5392   */\n      sub\n        /* \"#utility.yul\":5368:5369   */\n      0x00\n        /* \"#utility.yul\":5357:5366   */\n      dup4\n        /* \"#utility.yul\":5353:5370   */\n      add\n        /* \"#utility.yul\":5346:5393   */\n      mstore\n        /* \"#utility.yul\":5410:5541   */\n      tag_128\n        /* \"#utility.yul\":5536:5540   */\n      dup2\n        /* \"#utility.yul\":5410:5541   */\n      tag_67\n      jump\t// in\n    tag_128:\n        /* \"#utility.yul\":5402:5541   */\n      swap1\n      pop\n        /* \"#utility.yul\":5129:5548   */\n      swap2\n      swap1\n      pop\n      jump\t// out\n        /* \"#utility.yul\":5554:5730   */\n    tag_68:\n        /* \"#utility.yul\":5694:5722   */\n      0x536f72727920776520617265206f7574206f662073746f636b21000000000000\n        /* \"#utility.yul\":5690:5691   */\n      0x00\n        /* \"#utility.yul\":5682:5688   */\n      dup3\n        /* \"#utility.yul\":5678:5692   */\n      add\n        /* \"#utility.yul\":5671:5723   */\n      mstore\n        /* \"#utility.yul\":5554:5730   */\n      pop\n      jump\t// out\n        /* \"#utility.yul\":5736:6102   */\n    tag_69:\n        /* \"#utility.yul\":5878:5881   */\n      0x00\n        /* \"#utility.yul\":5899:5966   */\n      tag_131\n        /* \"#utility.yul\":5963:5965   */\n      0x1a\n        /* \"#utility.yul\":5958:5961   */\n      dup4\n        /* \"#utility.yul\":5899:5966   */\n      tag_62\n      jump\t// in\n    tag_131:\n        /* \"#utility.yul\":5892:5966   */\n      swap2\n      pop\n        /* \"#utility.yul\":5975:6068   */\n      tag_132\n        /* \"#utility.yul\":6064:6067   */\n      dup3\n        /* \"#utility.yul\":5975:6068   */\n      tag_68\n      jump\t// in\n    tag_132:\n        /* \"#utility.yul\":6093:6095   */\n      0x20\n        /* \"#utility.yul\":6088:6091   */\n      dup3\n        /* \"#utility.yul\":6084:6096   */\n      add\n        /* \"#utility.yul\":6077:6096   */\n      swap1\n      pop\n        /* \"#utility.yul\":5736:6102   */\n      swap2\n      swap1\n      pop\n      jump\t// out\n        /* \"#utility.yul\":6108:6527   */\n    tag_46:\n        /* \"#utility.yul\":6274:6278   */\n      0x00\n        /* \"#utility.yul\":6312:6314   */\n      0x20\n        /* \"#utility.yul\":6301:6310   */\n      dup3\n        /* \"#utility.yul\":6297:6315   */\n      add\n        /* \"#utility.yul\":6289:6315   */\n      swap1\n      pop\n        /* \"#utility.yul\":6361:6370   */\n      dup2\n        /* \"#utility.yul\":6355:6359   */\n      dup2\n        /* \"#utility.yul\":6351:6371   */\n      sub\n        /* \"#utility.yul\":6347:6348   */\n      0x00\n        /* \"#utility.yul\":6336:6345   */\n      dup4\n        /* \"#utility.yul\":6332:6349   */\n      add\n        /* \"#utility.yul\":6325:6372   */\n      mstore\n        /* \"#utility.yul\":6389:6520   */\n      tag_134\n        /* \"#utility.yul\":6515:6519   */\n      dup2\n        /* \"#utility.yul\":6389:6520   */\n      tag_69\n      jump\t// in\n    tag_134:\n        /* \"#utility.yul\":6381:6520   */\n      swap1\n      pop\n        /* \"#utility.yul\":6108:6527   */\n      swap2\n      swap1\n      pop\n      jump\t// out\n        /* \"#utility.yul\":6533:6727   */\n    tag_48:\n        /* \"#utility.yul\":6573:6577   */\n      0x00\n        /* \"#utility.yul\":6593:6613   */\n      tag_136\n        /* \"#utility.yul\":6611:6612   */\n      dup3\n        /* \"#utility.yul\":6593:6613   */\n      tag_50\n      jump\t// in\n    tag_136:\n        /* \"#utility.yul\":6588:6613   */\n      swap2\n      pop\n        /* \"#utility.yul\":6627:6647   */\n      tag_137\n        /* \"#utility.yul\":6645:6646   */\n      dup4\n        /* \"#utility.yul\":6627:6647   */\n      tag_50\n      jump\t// in\n    tag_137:\n        /* \"#utility.yul\":6622:6647   */\n      swap3\n      pop\n        /* \"#utility.yul\":6671:6672   */\n      dup3\n        /* \"#utility.yul\":6668:6669   */\n      dup3\n        /* \"#utility.yul\":6664:6673   */\n      sub\n        /* \"#utility.yul\":6656:6673   */\n      swap1\n      pop\n        /* \"#utility.yul\":6695:6696   */\n      dup2\n        /* \"#utility.yul\":6689:6693   */\n      dup2\n        /* \"#utility.yul\":6686:6697   */\n      gt\n        /* \"#utility.yul\":6683:6720   */\n      iszero\n      tag_138\n      jumpi\n        /* \"#utility.yul\":6700:6718   */\n      tag_139\n      tag_65\n      jump\t// in\n    tag_139:\n        /* \"#utility.yul\":6683:6720   */\n    tag_138:\n        /* \"#utility.yul\":6533:6727   */\n      swap3\n      swap2\n      pop\n      pop\n      jump\t// out\n\n    auxdata: 0xa2646970667358221220fce94ec53a727ab6b9d7c6d00a78fd7e5d941832031079292f77a3233559034964736f6c63430008110033\n}\n",
				"bytecode": {
					"linkReferences": {},
					"object": "608060405234801561001057600080fd5b50336000806101000a81548173ffffffffffffffffffffffffffffffffffffffff021916908373ffffffffffffffffffffffffffffffffffffffff160217905550600a600160003073ffffffffffffffffffffffffffffffffffffffff1673ffffffffffffffffffffffffffffffffffffffff168152602001908152602001600020819055506107e9806100a56000396000f3fe60806040526004361061004a5760003560e01c806381893c941461004f578063b2bdfa7b1461007a578063c21a702a146100a5578063c8baecbe146100ce578063efef39a11461010b575b600080fd5b34801561005b57600080fd5b50610064610127565b6040516100719190610431565b60405180910390f35b34801561008657600080fd5b5061008f61016e565b60405161009c919061048d565b60405180910390f35b3480156100b157600080fd5b506100cc60048036038101906100c791906104d9565b610192565b005b3480156100da57600080fd5b506100f560048036038101906100f09190610532565b610279565b6040516101029190610431565b60405180910390f35b610125600480360381019061012091906104d9565b610291565b005b6000600160003073ffffffffffffffffffffffffffffffffffffffff1673ffffffffffffffffffffffffffffffffffffffff16815260200190815260200160002054905090565b60008054906101000a900473ffffffffffffffffffffffffffffffffffffffff1681565b60008054906101000a900473ffffffffffffffffffffffffffffffffffffffff1673ffffffffffffffffffffffffffffffffffffffff163373ffffffffffffffffffffffffffffffffffffffff1614610220576040517f08c379a0000000000000000000000000000000000000000000000000000000008152600401610217906105bc565b60405180910390fd5b80600160003073ffffffffffffffffffffffffffffffffffffffff1673ffffffffffffffffffffffffffffffffffffffff168152602001908152602001600020600082825461026f919061060b565b9250508190555050565b60016020528060005260406000206000915090505481565b670de0b6b3a7640000816102a5919061063f565b3410156102e7576040517f08c379a00000000000000000000000000000000000000000000000000000000081526004016102de906106f3565b60405180910390fd5b80600160003073ffffffffffffffffffffffffffffffffffffffff1673ffffffffffffffffffffffffffffffffffffffff168152602001908152602001600020541015610369576040517f08c379a00000000000000000000000000000000000000000000000000000000081526004016103609061075f565b60405180910390fd5b80600160003073ffffffffffffffffffffffffffffffffffffffff1673ffffffffffffffffffffffffffffffffffffffff16815260200190815260200160002060008282546103b8919061077f565b9250508190555080600160003373ffffffffffffffffffffffffffffffffffffffff1673ffffffffffffffffffffffffffffffffffffffff168152602001908152602001600020600082825461040e919061060b565b9250508190555050565b6000819050919050565b61042b81610418565b82525050565b60006020820190506104466000830184610422565b92915050565b600073ffffffffffffffffffffffffffffffffffffffff82169050919050565b60006104778261044c565b9050919050565b6104878161046c565b82525050565b60006020820190506104a2600083018461047e565b92915050565b600080fd5b6104b681610418565b81146104c157600080fd5b50565b6000813590506104d3816104ad565b92915050565b6000602082840312156104ef576104ee6104a8565b5b60006104fd848285016104c4565b91505092915050565b61050f8161046c565b811461051a57600080fd5b50565b60008135905061052c81610506565b92915050565b600060208284031215610548576105476104a8565b5b60006105568482850161051d565b91505092915050565b600082825260208201905092915050565b7f4163636573732044656e69656421204e6f742061206f776e65722e0000000000600082015250565b60006105a6601b8361055f565b91506105b182610570565b602082019050919050565b600060208201905081810360008301526105d581610599565b9050919050565b7f4e487b7100000000000000000000000000000000000000000000000000000000600052601160045260246000fd5b600061061682610418565b915061062183610418565b9250828201905080821115610639576106386105dc565b5b92915050565b600061064a82610418565b915061065583610418565b925082820261066381610418565b9150828204841483151761067a576106796105dc565b5b5092915050565b7f4e6f742073756666696369656e7420616d6f756e7420666f722074686520637560008201527f7063616b65732100000000000000000000000000000000000000000000000000602082015250565b60006106dd60278361055f565b91506106e882610681565b604082019050919050565b6000602082019050818103600083015261070c816106d0565b9050919050565b7f536f72727920776520617265206f7574206f662073746f636b21000000000000600082015250565b6000610749601a8361055f565b915061075482610713565b602082019050919050565b600060208201905081810360008301526107788161073c565b9050919050565b600061078a82610418565b915061079583610418565b92508282039050818111156107ad576107ac6105dc565b5b9291505056fea2646970667358221220fce94ec53a727ab6b9d7c6d00a78fd7e5d941832031079292f77a3233559034964736f6c63430008110033",
					"opcodes": "PUSH1 0x80 PUSH1 0x40 MSTORE CALLVALUE DUP1 ISZERO PUSH2 0x10 JUMPI PUSH1 0x0 DUP1 REVERT JUMPDEST POP CALLER PUSH1 0x0 DUP1 PUSH2 0x100 EXP DUP2 SLOAD DUP2 PUSH20 0xFFFFFFFFFFFFFFFFFFFFFFFFFFFFFFFFFFFFFFFF MUL NOT AND SWAP1 DUP4 PUSH20 0xFFFFFFFFFFFFFFFFFFFFFFFFFFFFFFFFFFFFFFFF AND MUL OR SWAP1 SSTORE POP PUSH1 0xA PUSH1 0x1 PUSH1 0x0 ADDRESS PUSH20 0xFFFFFFFFFFFFFFFFFFFFFFFFFFFFFFFFFFFFFFFF AND PUSH20 0xFFFFFFFFFFFFFFFFFFFFFFFFFFFFFFFFFFFFFFFF AND DUP2 MSTORE PUSH1 0x20 ADD SWAP1 DUP2 MSTORE PUSH1 0x20 ADD PUSH1 0x0 KECCAK256 DUP2 SWAP1 SSTORE POP PUSH2 0x7E9 DUP1 PUSH2 0xA5 PUSH1 0x0 CODECOPY PUSH1 0x0 RETURN INVALID PUSH1 0x80 PUSH1 0x40 MSTORE PUSH1 0x4 CALLDATASIZE LT PUSH2 0x4A JUMPI PUSH1 0x0 CALLDATALOAD PUSH1 0xE0 SHR DUP1 PUSH4 0x81893C94 EQ PUSH2 0x4F JUMPI DUP1 PUSH4 0xB2BDFA7B EQ PUSH2 0x7A JUMPI DUP1 PUSH4 0xC21A702A EQ PUSH2 0xA5 JUMPI DUP1 PUSH4 0xC8BAECBE EQ PUSH2 0xCE JUMPI DUP1 PUSH4 0xEFEF39A1 EQ PUSH2 0x10B JUMPI JUMPDEST PUSH1 0x0 DUP1 REVERT JUMPDEST CALLVALUE DUP1 ISZERO PUSH2 0x5B JUMPI PUSH1 0x0 DUP1 REVERT JUMPDEST POP PUSH2 0x64 PUSH2 0x127 JUMP JUMPDEST PUSH1 0x40 MLOAD PUSH2 0x71 SWAP2 SWAP1 PUSH2 0x431 JUMP JUMPDEST PUSH1 0x40 MLOAD DUP1 SWAP2 SUB SWAP1 RETURN JUMPDEST CALLVALUE DUP1 ISZERO PUSH2 0x86 JUMPI PUSH1 0x0 DUP1 REVERT JUMPDEST POP PUSH2 0x8F PUSH2 0x16E JUMP JUMPDEST PUSH1 0x40 MLOAD PUSH2 0x9C SWAP2 SWAP1 PUSH2 0x48D JUMP JUMPDEST PUSH1 0x40 MLOAD DUP1 SWAP2 SUB SWAP1 RETURN JUMPDEST CALLVALUE DUP1 ISZERO PUSH2 0xB1 JUMPI PUSH1 0x0 DUP1 REVERT JUMPDEST POP PUSH2 0xCC PUSH1 0x4 DUP1 CALLDATASIZE SUB DUP2 ADD SWAP1 PUSH2 0xC7 SWAP2 SWAP1 PUSH2 0x4D9 JUMP JUMPDEST PUSH2 0x192 JUMP JUMPDEST STOP JUMPDEST CALLVALUE DUP1 ISZERO PUSH2 0xDA JUMPI PUSH1 0x0 DUP1 REVERT JUMPDEST POP PUSH2 0xF5 PUSH1 0x4 DUP1 CALLDATASIZE SUB DUP2 ADD SWAP1 PUSH2 0xF0 SWAP2 SWAP1 PUSH2 0x532 JUMP JUMPDEST PUSH2 0x279 JUMP JUMPDEST PUSH1 0x40 MLOAD PUSH2 0x102 SWAP2 SWAP1 PUSH2 0x431 JUMP JUMPDEST PUSH1 0x40 MLOAD DUP1 SWAP2 SUB SWAP1 RETURN JUMPDEST PUSH2 0x125 PUSH1 0x4 DUP1 CALLDATASIZE SUB DUP2 ADD SWAP1 PUSH2 0x120 SWAP2 SWAP1 PUSH2 0x4D9 JUMP JUMPDEST PUSH2 0x291 JUMP JUMPDEST STOP JUMPDEST PUSH1 0x0 PUSH1 0x1 PUSH1 0x0 ADDRESS PUSH20 0xFFFFFFFFFFFFFFFFFFFFFFFFFFFFFFFFFFFFFFFF AND PUSH20 0xFFFFFFFFFFFFFFFFFFFFFFFFFFFFFFFFFFFFFFFF AND DUP2 MSTORE PUSH1 0x20 ADD SWAP1 DUP2 MSTORE PUSH1 0x20 ADD PUSH1 0x0 KECCAK256 SLOAD SWAP1 POP SWAP1 JUMP JUMPDEST PUSH1 0x0 DUP1 SLOAD SWAP1 PUSH2 0x100 EXP SWAP1 DIV PUSH20 0xFFFFFFFFFFFFFFFFFFFFFFFFFFFFFFFFFFFFFFFF AND DUP2 JUMP JUMPDEST PUSH1 0x0 DUP1 SLOAD SWAP1 PUSH2 0x100 EXP SWAP1 DIV PUSH20 0xFFFFFFFFFFFFFFFFFFFFFFFFFFFFFFFFFFFFFFFF AND PUSH20 0xFFFFFFFFFFFFFFFFFFFFFFFFFFFFFFFFFFFFFFFF AND CALLER PUSH20 0xFFFFFFFFFFFFFFFFFFFFFFFFFFFFFFFFFFFFFFFF AND EQ PUSH2 0x220 JUMPI PUSH1 0x40 MLOAD PUSH32 0x8C379A000000000000000000000000000000000000000000000000000000000 DUP2 MSTORE PUSH1 0x4 ADD PUSH2 0x217 SWAP1 PUSH2 0x5BC JUMP JUMPDEST PUSH1 0x40 MLOAD DUP1 SWAP2 SUB SWAP1 REVERT JUMPDEST DUP1 PUSH1 0x1 PUSH1 0x0 ADDRESS PUSH20 0xFFFFFFFFFFFFFFFFFFFFFFFFFFFFFFFFFFFFFFFF AND PUSH20 0xFFFFFFFFFFFFFFFFFFFFFFFFFFFFFFFFFFFFFFFF AND DUP2 MSTORE PUSH1 0x20 ADD SWAP1 DUP2 MSTORE PUSH1 0x20 ADD PUSH1 0x0 KECCAK256 PUSH1 0x0 DUP3 DUP3 SLOAD PUSH2 0x26F SWAP2 SWAP1 PUSH2 0x60B JUMP JUMPDEST SWAP3 POP POP DUP2 SWAP1 SSTORE POP POP JUMP JUMPDEST PUSH1 0x1 PUSH1 0x20 MSTORE DUP1 PUSH1 0x0 MSTORE PUSH1 0x40 PUSH1 0x0 KECCAK256 PUSH1 0x0 SWAP2 POP SWAP1 POP SLOAD DUP2 JUMP JUMPDEST PUSH8 0xDE0B6B3A7640000 DUP2 PUSH2 0x2A5 SWAP2 SWAP1 PUSH2 0x63F JUMP JUMPDEST CALLVALUE LT ISZERO PUSH2 0x2E7 JUMPI PUSH1 0x40 MLOAD PUSH32 0x8C379A000000000000000000000000000000000000000000000000000000000 DUP2 MSTORE PUSH1 0x4 ADD PUSH2 0x2DE SWAP1 PUSH2 0x6F3 JUMP JUMPDEST PUSH1 0x40 MLOAD DUP1 SWAP2 SUB SWAP1 REVERT JUMPDEST DUP1 PUSH1 0x1 PUSH1 0x0 ADDRESS PUSH20 0xFFFFFFFFFFFFFFFFFFFFFFFFFFFFFFFFFFFFFFFF AND PUSH20 0xFFFFFFFFFFFFFFFFFFFFFFFFFFFFFFFFFFFFFFFF AND DUP2 MSTORE PUSH1 0x20 ADD SWAP1 DUP2 MSTORE PUSH1 0x20 ADD PUSH1 0x0 KECCAK256 SLOAD LT ISZERO PUSH2 0x369 JUMPI PUSH1 0x40 MLOAD PUSH32 0x8C379A000000000000000000000000000000000000000000000000000000000 DUP2 MSTORE PUSH1 0x4 ADD PUSH2 0x360 SWAP1 PUSH2 0x75F JUMP JUMPDEST PUSH1 0x40 MLOAD DUP1 SWAP2 SUB SWAP1 REVERT JUMPDEST DUP1 PUSH1 0x1 PUSH1 0x0 ADDRESS PUSH20 0xFFFFFFFFFFFFFFFFFFFFFFFFFFFFFFFFFFFFFFFF AND PUSH20 0xFFFFFFFFFFFFFFFFFFFFFFFFFFFFFFFFFFFFFFFF AND DUP2 MSTORE PUSH1 0x20 ADD SWAP1 DUP2 MSTORE PUSH1 0x20 ADD PUSH1 0x0 KECCAK256 PUSH1 0x0 DUP3 DUP3 SLOAD PUSH2 0x3B8 SWAP2 SWAP1 PUSH2 0x77F JUMP JUMPDEST SWAP3 POP POP DUP2 SWAP1 SSTORE POP DUP1 PUSH1 0x1 PUSH1 0x0 CALLER PUSH20 0xFFFFFFFFFFFFFFFFFFFFFFFFFFFFFFFFFFFFFFFF AND PUSH20 0xFFFFFFFFFFFFFFFFFFFFFFFFFFFFFFFFFFFFFFFF AND DUP2 MSTORE PUSH1 0x20 ADD SWAP1 DUP2 MSTORE PUSH1 0x20 ADD PUSH1 0x0 KECCAK256 PUSH1 0x0 DUP3 DUP3 SLOAD PUSH2 0x40E SWAP2 SWAP1 PUSH2 0x60B JUMP JUMPDEST SWAP3 POP POP DUP2 SWAP1 SSTORE POP POP JUMP JUMPDEST PUSH1 0x0 DUP2 SWAP1 POP SWAP2 SWAP1 POP JUMP JUMPDEST PUSH2 0x42B DUP2 PUSH2 0x418 JUMP JUMPDEST DUP3 MSTORE POP POP JUMP JUMPDEST PUSH1 0x0 PUSH1 0x20 DUP3 ADD SWAP1 POP PUSH2 0x446 PUSH1 0x0 DUP4 ADD DUP5 PUSH2 0x422 JUMP JUMPDEST SWAP3 SWAP2 POP POP JUMP JUMPDEST PUSH1 0x0 PUSH20 0xFFFFFFFFFFFFFFFFFFFFFFFFFFFFFFFFFFFFFFFF DUP3 AND SWAP1 POP SWAP2 SWAP1 POP JUMP JUMPDEST PUSH1 0x0 PUSH2 0x477 DUP3 PUSH2 0x44C JUMP JUMPDEST SWAP1 POP SWAP2 SWAP1 POP JUMP JUMPDEST PUSH2 0x487 DUP2 PUSH2 0x46C JUMP JUMPDEST DUP3 MSTORE POP POP JUMP JUMPDEST PUSH1 0x0 PUSH1 0x20 DUP3 ADD SWAP1 POP PUSH2 0x4A2 PUSH1 0x0 DUP4 ADD DUP5 PUSH2 0x47E JUMP JUMPDEST SWAP3 SWAP2 POP POP JUMP JUMPDEST PUSH1 0x0 DUP1 REVERT JUMPDEST PUSH2 0x4B6 DUP2 PUSH2 0x418 JUMP JUMPDEST DUP2 EQ PUSH2 0x4C1 JUMPI PUSH1 0x0 DUP1 REVERT JUMPDEST POP JUMP JUMPDEST PUSH1 0x0 DUP2 CALLDATALOAD SWAP1 POP PUSH2 0x4D3 DUP2 PUSH2 0x4AD JUMP JUMPDEST SWAP3 SWAP2 POP POP JUMP JUMPDEST PUSH1 0x0 PUSH1 0x20 DUP3 DUP5 SUB SLT ISZERO PUSH2 0x4EF JUMPI PUSH2 0x4EE PUSH2 0x4A8 JUMP JUMPDEST JUMPDEST PUSH1 0x0 PUSH2 0x4FD DUP5 DUP3 DUP6 ADD PUSH2 0x4C4 JUMP JUMPDEST SWAP2 POP POP SWAP3 SWAP2 POP POP JUMP JUMPDEST PUSH2 0x50F DUP2 PUSH2 0x46C JUMP JUMPDEST DUP2 EQ PUSH2 0x51A JUMPI PUSH1 0x0 DUP1 REVERT JUMPDEST POP JUMP JUMPDEST PUSH1 0x0 DUP2 CALLDATALOAD SWAP1 POP PUSH2 0x52C DUP2 PUSH2 0x506 JUMP JUMPDEST SWAP3 SWAP2 POP POP JUMP JUMPDEST PUSH1 0x0 PUSH1 0x20 DUP3 DUP5 SUB SLT ISZERO PUSH2 0x548 JUMPI PUSH2 0x547 PUSH2 0x4A8 JUMP JUMPDEST JUMPDEST PUSH1 0x0 PUSH2 0x556 DUP5 DUP3 DUP6 ADD PUSH2 0x51D JUMP JUMPDEST SWAP2 POP POP SWAP3 SWAP2 POP POP JUMP JUMPDEST PUSH1 0x0 DUP3 DUP3 MSTORE PUSH1 0x20 DUP3 ADD SWAP1 POP SWAP3 SWAP2 POP POP JUMP JUMPDEST PUSH32 0x4163636573732044656E69656421204E6F742061206F776E65722E0000000000 PUSH1 0x0 DUP3 ADD MSTORE POP JUMP JUMPDEST PUSH1 0x0 PUSH2 0x5A6 PUSH1 0x1B DUP4 PUSH2 0x55F JUMP JUMPDEST SWAP2 POP PUSH2 0x5B1 DUP3 PUSH2 0x570 JUMP JUMPDEST PUSH1 0x20 DUP3 ADD SWAP1 POP SWAP2 SWAP1 POP JUMP JUMPDEST PUSH1 0x0 PUSH1 0x20 DUP3 ADD SWAP1 POP DUP2 DUP2 SUB PUSH1 0x0 DUP4 ADD MSTORE PUSH2 0x5D5 DUP2 PUSH2 0x599 JUMP JUMPDEST SWAP1 POP SWAP2 SWAP1 POP JUMP JUMPDEST PUSH32 0x4E487B7100000000000000000000000000000000000000000000000000000000 PUSH1 0x0 MSTORE PUSH1 0x11 PUSH1 0x4 MSTORE PUSH1 0x24 PUSH1 0x0 REVERT JUMPDEST PUSH1 0x0 PUSH2 0x616 DUP3 PUSH2 0x418 JUMP JUMPDEST SWAP2 POP PUSH2 0x621 DUP4 PUSH2 0x418 JUMP JUMPDEST SWAP3 POP DUP3 DUP3 ADD SWAP1 POP DUP1 DUP3 GT ISZERO PUSH2 0x639 JUMPI PUSH2 0x638 PUSH2 0x5DC JUMP JUMPDEST JUMPDEST SWAP3 SWAP2 POP POP JUMP JUMPDEST PUSH1 0x0 PUSH2 0x64A DUP3 PUSH2 0x418 JUMP JUMPDEST SWAP2 POP PUSH2 0x655 DUP4 PUSH2 0x418 JUMP JUMPDEST SWAP3 POP DUP3 DUP3 MUL PUSH2 0x663 DUP2 PUSH2 0x418 JUMP JUMPDEST SWAP2 POP DUP3 DUP3 DIV DUP5 EQ DUP4 ISZERO OR PUSH2 0x67A JUMPI PUSH2 0x679 PUSH2 0x5DC JUMP JUMPDEST JUMPDEST POP SWAP3 SWAP2 POP POP JUMP JUMPDEST PUSH32 0x4E6F742073756666696369656E7420616D6F756E7420666F7220746865206375 PUSH1 0x0 DUP3 ADD MSTORE PUSH32 0x7063616B65732100000000000000000000000000000000000000000000000000 PUSH1 0x20 DUP3 ADD MSTORE POP JUMP JUMPDEST PUSH1 0x0 PUSH2 0x6DD PUSH1 0x27 DUP4 PUSH2 0x55F JUMP JUMPDEST SWAP2 POP PUSH2 0x6E8 DUP3 PUSH2 0x681 JUMP JUMPDEST PUSH1 0x40 DUP3 ADD SWAP1 POP SWAP2 SWAP1 POP JUMP JUMPDEST PUSH1 0x0 PUSH1 0x20 DUP3 ADD SWAP1 POP DUP2 DUP2 SUB PUSH1 0x0 DUP4 ADD MSTORE PUSH2 0x70C DUP2 PUSH2 0x6D0 JUMP JUMPDEST SWAP1 POP SWAP2 SWAP1 POP JUMP JUMPDEST PUSH32 0x536F72727920776520617265206F7574206F662073746F636B21000000000000 PUSH1 0x0 DUP3 ADD MSTORE POP JUMP JUMPDEST PUSH1 0x0 PUSH2 0x749 PUSH1 0x1A DUP4 PUSH2 0x55F JUMP JUMPDEST SWAP2 POP PUSH2 0x754 DUP3 PUSH2 0x713 JUMP JUMPDEST PUSH1 0x20 DUP3 ADD SWAP1 POP SWAP2 SWAP1 POP JUMP JUMPDEST PUSH1 0x0 PUSH1 0x20 DUP3 ADD SWAP1 POP DUP2 DUP2 SUB PUSH1 0x0 DUP4 ADD MSTORE PUSH2 0x778 DUP2 PUSH2 0x73C JUMP JUMPDEST SWAP1 POP SWAP2 SWAP1 POP JUMP JUMPDEST PUSH1 0x0 PUSH2 0x78A DUP3 PUSH2 0x418 JUMP JUMPDEST SWAP2 POP PUSH2 0x795 DUP4 PUSH2 0x418 JUMP JUMPDEST SWAP3 POP DUP3 DUP3 SUB SWAP1 POP DUP2 DUP2 GT ISZERO PUSH2 0x7AD JUMPI PUSH2 0x7AC PUSH2 0x5DC JUMP JUMPDEST JUMPDEST SWAP3 SWAP2 POP POP JUMP INVALID LOG2 PUSH5 0x6970667358 0x22 SLT KECCAK256 0xFC 0xE9 0x4E 0xC5 GASPRICE PUSH19 0x7AB6B9D7C6D00A78FD7E5D941832031079292F PUSH24 0xA3233559034964736F6C6343000811003300000000000000 "
				},
				"gasEstimates": {
					"creation": {
						"codeDepositCost": "405000",
						"executionCost": "46912",
						"totalCost": "451912"
					},
					"external": {
						"_owner()": "2511",
						"cupcakeBalance(address)": "2858",
						"purchase(uint256)": "infinite",
						"restock(uint256)": "infinite",
						"retireveCupcakeBalance()": "2504"
					}
				},
				"methodIdentifiers": {
					"_owner()": "b2bdfa7b",
					"cupcakeBalance(address)": "c8baecbe",
					"purchase(uint256)": "efef39a1",
					"restock(uint256)": "c21a702a",
					"retireveCupcakeBalance()": "81893c94"
				}
			},
			"storageLayout": {
				"storage": [
					{
						"astId": 3,
						"contract": "contracts/vendingMachine.sol:VendingMachine",
						"label": "_owner",
						"offset": 0,
						"slot": "0",
						"type": "t_address"
					},
					{
						"astId": 7,
						"contract": "contracts/vendingMachine.sol:VendingMachine",
						"label": "cupcakeBalance",
						"offset": 0,
						"slot": "1",
						"type": "t_mapping(t_address,t_uint256)"
					}
				],
				"types": {
					"t_address": {
						"encoding": "inplace",
						"label": "address",
						"numberOfBytes": "20"
					},
					"t_mapping(t_address,t_uint256)": {
						"encoding": "mapping",
						"key": "t_address",
						"label": "mapping(address => uint256)",
						"numberOfBytes": "32",
						"value": "t_uint256"
					},
					"t_uint256": {
						"encoding": "inplace",
						"label": "uint256",
						"numberOfBytes": "32"
					}
				}
			},
			"userdoc": {
				"kind": "user",
				"methods": {},
				"version": 1
			}
		}
	}
}